:100000000C94FE030C9499140C94CA140C94FB14D5
:100010000C942C150C945D150C948E150C94BF1536
:100020000C94F0150C942A040C942A040C942A04C1
:100030000C942A040C942A040C942A040C942A0488
:100040000C942A040C942A040C942A040C942A0478
:100050000C942A040C942A040C942A040C940C1377
:100060000C942A040C9408190C94341A0C942A0445
:100070000C942A040C942A040C942A040C942A0448
:100080000C942A040C942A040C942A040C942A0438
:100090000C9441190C94731A0C942A040C942A049D
:1000A0000C942A040C942A040C942A040C942A0418
:1000B0000C942A040C942A040C942A040C942A0408
:1000C0000C942A040C942A040C942A040C947A1993
:1000D0000C94B21A0C942A040C94B3190C94F11ACF
:1000E0000C942A0400002100240027002A002D007F
:1000F0003000330001010000040107010A01000083
:100100002200250028002B002E00310034000201BF
:100110000000050108010B0100002000230026005B
:1001200029002C002F00320000010000030106010D
:10013000090105050505070508080808020202026D
:100140000A0A080804040404010101010101010173
:100150000303030303030303040707070C0C0C0C3E
:100160000C0C0C0C02020202060606060606060627
:100170000B0B0B0B0B0B0B0B0102102020080810B4
:100180002040102040800201020108040201010207
:1001900004081020408080402010080402018004E0
:1001A000020180402010080402010804020101023B
:1001B0000408102040800102040810204080000044
:1001C000090A02080B0C0D070603040100000000D9
:1001D000000000000000000000000000000000001F
:1001E0000000000000000000000011100F000000DF
:1001F00000000000000000000000000000000000FF
:100200000000000000000000003E5B4F5B3E3E6BC4
:100210004F6B3E1C3E7C3E1C183C7E3C181C577DA0
:10022000571C1C5E7F5E1C00183C1800FFE7C3E7EC
:10023000FF0018241800FFE7DBE7FF30483A060EFE
:100240002629792926407F050507407F05253F5A45
:100250003CE73C5A7F3E1C1C08081C1C3E7F1422B5
:100260007F22145F5F005F5F06097F017F00668960
:10027000956A606060606094A2FFA29408047E04A6
:100280000810207E201008082A1C08081C2A0808CC
:100290001E101010100C1E0C1E0C30383E3830068C
:1002A0000E3E0E06000000000000005F0000000788
:1002B000000700147F147F14242A7F2A12231308B6
:1002C000646236495620500008070300001C224192
:1002D000000041221C002A1C7F1C2A08083E080836
:1002E00000807030000808080808000060600020E6
:1002F000100804023E5149453E00427F40007249C9
:100300004949462141494D331814127F102745456C
:1003100045393C4A49493141211109073649494982
:1003200036464949291E00001400000040340000F0
:100330000008142241141414141400412214080259
:10034000015909063E415D594E7C1211127C7F49CC
:100350004949363E414141227F4141413E7F494921
:1003600049417F090909013E414151737F0808084D
:100370007F00417F41002040413F017F081422411E
:100380007F404040407F021C027F7F0408107F3E78
:100390004141413E7F090909063E4151215E7F09E5
:1003A000192946264949493203017F01033F40404C
:1003B000403F1F2040201F3F4038403F6314081437
:1003C0006303047804036159494D43007F4141416F
:1003D0000204081020004141417F04020102044050
:1003E00040404040000307080020545478407F28D4
:1003F0004444383844444428384444287F385454CA
:10040000541800087E090218A4A49C787F080404EC
:100410007800447D40002040403D007F102844008B
:1004200000417F40007C047804787C08040478381C
:1004300044444438FC1824241818242418FC7C084C
:10044000040408485454542404043F44243C4040C9
:10045000207C1C2040201C3C4030403C442810287C
:10046000444C9090907C4464544C440008364100C5
:100470000000770000004136080002010204023C3F
:100480002623263C1EA1A161123A4040207A38540E
:100490005455592155557941215454784121555489
:1004A000784020545579400C1E52721239555555DA
:1004B00059395454545939555454580000457C41C5
:1004C0000002457D420001457C40F0292429F0F0DE
:1004D000282528F07C545545002054547C547C0A2F
:1004E000097F4932494949323248484832324A48FC
:1004F00048303A4141217A3A42402078009DA0A0FC
:100500007D39444444393D4040403D3C24FF24244F
:10051000487E4943662B2FFC2F2BFF0929F620C06C
:10052000887E090320545479410000447D413048BD
:10053000484A32384040227A007A0A0A727D0D1900
:10054000317D2629292F28262929292630484D4062
:1005500020380808080808080808382F10C8ACBA5E
:100560002F102834FA00007B000008142A142222DD
:10057000142A1408AA005500AAAA55AA55AA0000D0
:1005800000FF00101010FF00141414FF001010FFE3
:1005900000FF1010F010F0141414FC001414F700F5
:1005A000FF0000FF00FF1414F404FC141417101FC4
:1005B00010101F101F1414141F00101010F0000052
:1005C00000001F101010101F10101010F01000006D
:1005D00000FF101010101010101010FF100000007D
:1005E000FF140000FF00FF00001F10170000FC04B4
:1005F000F414141710171414F404F40000FF00F797
:1006000014141414141414F700F7141414171410F9
:10061000101F101F141414F4141010F010F0000028
:100620001F101F0000001F14000000FC140000F049
:1006300010F01010FF10FF141414FF141010101FEE
:1006400000000000F010FFFFFFFFFFF0F0F0F0F0FF
:10065000FFFFFF0000000000FFFF0F0F0F0F0F381C
:10066000444438447C2A2A3E147E02020606027E56
:10067000027E0263554941633844443C04407E2075
:100680001E2006027E020299A5E7A5991C2A492A86
:100690001C4C7201724C304A4D4D30304878483015
:1006A000BC625A463D3E494949007E0101017E2A0D
:1006B0002A2A2A2A44445F444440514A4440404440
:1006C0004A51400000FF0103E080FF000008086B72
:1006D0006B083612362436060F090F06000018186C
:1006E0000000001010003040FF0101001F01011E3A
:1006F00000191D1712003C3C3C3C00000000000F9C
:100700000180961180FFB103012C2DB203012C2D25
:10071000B306012C2D012C2DB40107C003A20284C5
:10072000C101C5C2020A00C3028A2AC4028AEEC5F8
:10073000010E20003601C83A0105022A0400020019
:10074000812B04000100A0022A040000007F2B047A
:100750000000009F04E010021C07123732292D29E7
:10076000252B3900010310E110031D07062E2C294B
:100770002D2E2E373F0000021013800A29806412AC
:100780000180321180FF3A81050AB1830006030A15
:10079000360108B6021502B40100C08202700AC117
:1007A0000105C2020102C5823C380AFC021115E0B3
:1007B0001009160920211B131917151E2B040502F9
:1007C0000EE1900B14081E221D181E1B1A242B0666
:1007D00006020F0A2A04000200812B040002008195
:1007E00013800A2980FF7C3C3E5E2B3D3F2F5B5DE2
:1007F0003B2C2A225C0027095B1C192511241FBEF3
:10080000CFEFD1E2DEBFCDBF00E00CBF16E0A0E02D
:10081000B2E0E8EEFDE700E00BBF02C007900D92EA
:10082000A03FB107D9F71CE0A0EFB6E001C01D92D0
:10083000A836B107E1F717E0CCEFD7E004C0229764
:10084000FE010E94EE3EC63FD107C9F70E94F8188C
:100850000C944D3B0C9400001092F9061092FA068D
:100860001092FB061092FC061092FD061092FE06F6
:100870001092FF06109200071092F6061092F506ED
:100880001092F8061092F7061092F2061092F106F6
:100890001092F4061092F30680919A068093F00667
:1008A000089580919A06853028F480919A068F5F8A
:1008B00080939A0680919A06089580919A068823DB
:1008C00029F080919A06815080939A0680919A0629
:1008D0000895FC01DB018091F5069091F6062091C8
:1008E000F1063091F206821B930B918380838091F5
:1008F000F7069091F8062091F3063091F406821BDA
:10090000930B8D939C9381E0089597FF03C0E0E0E3
:10091000F0E010C0E091F006F0E0EE0FFF1FE250B3
:10092000FA4F0190F081E02DE058F0408E179F07BC
:1009300008F4FC01F093F206E093F10677FF03C0A0
:1009400060E070E010C0E091F006F0E0EE0FFF1FF5
:10095000E65FF94F0190F081E02DE05AF040E61794
:10096000F70708F4BF017093F4066093F306089547
:10097000AF92BF92CF92DF92EF92FF920F931F93AD
:100980004091F5065091F606425050402091F706EE
:100990003091F806225030408091F00666E0869F44
:1009A000C00111246091F1067091F2068A01061BC4
:1009B000170B6091F3067091F4067901E61AF70AB5
:1009C0008A5E994F62E077E0F5E0CF2ED12CE5E02A
:1009D000AE2EB12C0E94A3381F910F91FF90EF9083
:1009E000DF90CF90BF90AF900895AF92BF92CF921B
:1009F000DF92EF92FF920F931F938091F00626E013
:100A0000829FC00111244091F1065091F20620917D
:100A1000F3063091F4068A5E994F62E077E000E0D9
:100A200010E0EE24FF24B0E8CB2ED12CA0EAAA2EB1
:100A3000B12C0E94A3381F910F91FF90EF90DF908F
:100A4000CF90BF90AF9008950F931F936091F506DC
:100A50007091F6068091F1069091F206681B790B71
:100A60004091F7065091F8068091F3069091F406B4
:100A7000481B590B82E097E022E030E000E018EFDD
:100A80000E94751E1F910F910895AF92BF92CF9251
:100A9000DF92EF92FF920F931F935A016B01A82FE1
:100AA000BB27A7FDB09500D00F926AE376E0FD0169
:100AB00084E0EE0FFF1F8A95E1F7E60FF71F208114
:100AC000318142815381AA0FBB1FCD01019613E0F2
:100AD000880F991F1A95E1F7680F791FFB01E080D5
:100AE000F18002811381A65FB94F8D919C91A0E0A6
:100AF000B0E0EDB7FEB781839283A383B483C601D0
:100B0000B501AA24BB2465010E946B170F900F90BA
:100B10000F900F901F910F91FF90EF90DF90CF906B
:100B2000BF90AF900895AF92BF92CF92DF92EF92B5
:100B3000FF920F931F935A016B01A82FBB27A7FDAC
:100B4000B09500D00F92FD0104E0EE0FFF1F0A9553
:100B5000E1F78AE396E0E80FF91F248135814681A9
:100B60005781E484F58406851785AA0FBB1FA25020
:100B7000BA4F8D919C91A0E0B0E0EDB7FEB78183B4
:100B80009283A383B483C601B501AA24BB24650163
:100B90000E946B170F900F900F900F901F910F9165
:100BA000FF90EF90DF90CF90BF90AF900895AF92FD
:100BB000BF92CF92DF92EF92FF920F931F937B0130
:100BC0008C0159016A018091F006B801A7010E94C9
:100BD00093057093F2066093F1068091F006B601DA
:100BE000A5010E9445052091F1063091F20637FFDC
:100BF00003C0E0E0F0E010C0E091F006F0E0EE0F9E
:100C0000FF1FE250FA4F0190F081E02DE058F040D4
:100C10002E173F0708F4F901F093F206E093F1066E
:100C200077FF03C060E070E010C0E091F006F0E0F4
:100C3000EE0FFF1FE65FF94F0190F081E02DE05AC3
:100C4000F040E617F70708F4BF017093F4066093CD
:100C5000F3061F910F91FF90EF90DF90CF90BF9020
:100C6000AF90089580919A068093F0064091F9061E
:100C70005091FA066091FB067091FC060E94930564
:100C80007093F6066093F5064091FD065091FE06BE
:100C90006091FF06709100078091F0060E94450563
:100CA0007093F8066093F7068091F0060895AF926E
:100CB000BF92CF92DF92EF92FF920F931F93A82FD4
:100CC000BB27A7FDB09500D00F92CD01880F991FCB
:100CD000FC01E65FF94FE080F18000E010E0EAE31C
:100CE000F6E034E0AA0FBB1F3A95E1F7AE0FBF1F45
:100CF000AD90BD90CD90DC90019623E0880F991FB8
:100D00002A95E1F7E80FF91F80819181A281B381D3
:100D1000EDB7FEB781839283A383B483CB01BA017D
:100D200020E030E040E050E00E946B170F900F9001
:100D30000F900F901F910F91FF90EF90DF90CF9049
:100D4000BF90AF900895AF92BF92CF92DF92EF9293
:100D5000FF920F931F93992787FD909500D00F92D4
:100D6000FC01EE0FFF1FE250FA4FE080F18000E03F
:100D700010E0B4E0880F991FBA95E1F7EAE3F6E0D6
:100D8000DF01A80FB91F1496AD90BD90CD90DC90F7
:100D90001797E80FF91F84859585A685B785EDB768
:100DA000FEB781839283A383B483CB01BA0120E091
:100DB00030E040E050E00E946B170F900F900F90D2
:100DC0000F901F910F91FF90EF90DF90CF90BF9009
:100DD000AF9008952F923F924F925F926F927F92C1
:100DE0008F929F92AF92BF92CF92DF92EF92FF923B
:100DF0000F931F93DF93CF93CDB7DEB728970FB62E
:100E0000F894DEBF0FBECDBF69837A838B839C834A
:100E10002D833E834F8358874091F1065091F2060F
:100E200060E070E08091F0060E94A3061B012C0197
:100E30004091F1065091F20640585F4F60E070E03B
:100E40008091F0060E94A3067B018C014091F3067D
:100E50005091F40660E070E08091F0060E94570621
:100E60003B014C014091F3065091F40640565F4F10
:100E700060E070E08091F0060E945706E214F304EF
:100E8000040515052CF457016801820171010AC09F
:100E90002E143F04400651061CF46201510102C0A9
:100EA0005701680166157705880599052CF49B01A3
:100EB000AC01C401B3010AC066167706880699061C
:100EC0001CF4A401930102C09B01AC0169807A80EB
:100ED0008B809C80E614F70408051905B4F06A14A9
:100EE0007B048C049D048CF0ED80FE800F811885BE
:100EF0006E157F058007910744F080E0E216F30647
:100F0000040715071CF081E001C080E028960FB6A9
:100F1000F894DEBF0FBECDBFCF91DF911F910F912F
:100F2000FF90EF90DF90CF90BF90AF909F908F9009
:100F30007F906F905F904F903F902F9008952F92E9
:100F40003F924F925F926F927F928F929F92AF9259
:100F5000BF92CF92DF92EF92FF920F931F93DF9396
:100F6000CF93CDB7DEB768970FB6F894DEBF0FBE4C
:100F7000CDBF3B014C0119012A01EF86F88A098B8C
:100F80001A8BAB8ABC8ACD8ADE8A8091F006B401C6
:100F9000A3010E9493056B877C878D879E87209194
:100FA000F1063091F2063A8729878091F0064F8545
:100FB000588969897A890E9493056D837E838F831E
:100FC00098874091F1065091F2065A8349838091A7
:100FD000F006B201A1010E9445055B016C01809100
:100FE000F3069091F4069C838B838091F0064B89E5
:100FF0005C896D897E890E9445057B018C01E091A9
:10100000F306F091F406F88FEF8BC401B301A2014F
:1010100091010E94EA06882309F44EC06F85788901
:1010200089899A892B893C894D895E890E94EA06C3
:10103000882309F441C029853A85C901A0E0B0E0C0
:101040002B853C854D855E85281B390B4A0B5B0B38
:101050002B873C874D875E874B815C81CA01A0E06E
:10106000B0E0A81AB90ACA0ADB0AE981FA81CF01FD
:10107000A0E0B0E02D813E814F815885281B390BBF
:101080004A0B5B0B2D833E834F8358874F89588DC6
:10109000CA01A0E0B0E0E81AF90A0A0B1B0B82E0D3
:1010A00097E06B857C85A5012D813E818701EFE16D
:1010B000EE2EF12C0E94A91E68960FB6F894DEBFA2
:1010C0000FBECDBFCF91DF911F910F91FF90EF9099
:1010D000DF90CF90BF90AF909F908F907F906F9058
:1010E0005F904F903F902F90089597FF03C080E04E
:1010F00090E00EC0E091F006F0E0EE0FFF1FE2502E
:10110000FA4F0190F081E02DE817F90708F4CF01BC
:101110009093F6068093F50677FF03C060E070E0D9
:101120000EC0E091F006F0E0EE0FFF1FE65FF94F12
:101130000190F081E02DE617F70708F4BF017093E6
:10114000F8066093F706AC0160E070E08091F0066D
:101150000E94A3066093F9067093FA068093FB063B
:101160009093FC064091F7065091F80660E070E01D
:101170008091F0060E9457066093FD067093FE066C
:101180008093FF069093000708954091F5065091D3
:10119000F6062091F7063091F806260F371F840FC8
:1011A000951FB9010E9475080895CF92DF92EF92C2
:1011B000FF920F931F93DF93CF93CDB7DEB7EDB6BA
:1011C000FEB6CEB680919B06882359F18DB79EB7A7
:1011D000805091400FB6F8949EBF0FBE8DBF0DB7E3
:1011E0001EB70F5F1F4FFE013E96C80160E071E021
:1011F0004C855D859F010E948C3B86E999E06CE3FC
:1012000072E00E94E21886E999E0B8010E94E518B0
:101210002E2D3C2DC9010FB6F8949EBF0FBE8DBF79
:1012200008C08DB79EB79C010FB6F8943EBF0FBEA5
:101230002DBF0FB6F894FEBE0FBEEDBECF91DF916D
:101240001F910F91FF90EF90DF90CF90089582E073
:1012500097E066E047E028E00E94FF201092360702
:1012600010923707109238071092390710923A07F8
:1012700010923B0710923C0710923D0710923E07D8
:1012800010923F07109240071092410710924207B8
:101290001092430710924407109245070E9454137E
:1012A0006093590770935A0780935B0790935C078C
:1012B00008958F929F92AF92BF92CF92DF92EF925A
:1012C000FF920F931F93CF93DF9388249924C0E05C
:1012D000D0E022C0E0913207F0913307DF01AC0F7C
:1012E000BD1F2896EC0FFD1F6D917D918D919C91F6
:1012F000139714962D913D914D915C911797E08035
:10130000F18002811381A480B580C680D7800E94BD
:101310009F070894811C911C8091300790913107A0
:10132000019788169906B0F2DF91CF911F910F9126
:10133000FF90EF90DF90CF90BF90AF909F908F90F5
:1013400008959091010780919A06981711F40E94D0
:101350005D0408959091010780919A06981711F401
:101360000E9451040895EF92FF920F931F93CF9321
:10137000DF93EC017B0180E00E94371720919E06ED
:1013800030919F068C01021B130B81E00E943717DE
:101390002091A0063091A106821B930B9C01C801ED
:1013A0000496099710F400E010E0C901049609972B
:1013B00010F420E030E0C80160E870E00E949C3E3C
:1013C00079836883C90160E870E00E949C3EF70160
:1013D000718360830E9454137B018C0180915907B3
:1013E00090915A07A0915B07B0915C07E816F90647
:1013F0000A071B0740F4E0925907F0925A0700933E
:101400005B0710935C078091A2069091A306A091C0
:10141000A406B091A5062091590730915A07409132
:101420005B0750915C07820F931FA41FB51F8E1599
:101430009F05A007B10710F080E019C0E09259079E
:10144000F0925A0700935B0710935C0784E00E94B8
:10145000071720E0892B09F421E0809158078823A1
:1014600021F080E0222309F481E020935807DF91E6
:10147000CF911F910F91FF90EF90089584E060E06D
:101480000E94211684E061E00E94D41681E00E944F
:10149000371790939F0680939E0680E00E9437172F
:1014A0009093A1068093A006089582E19AE065E0FA
:1014B0000E947D27882329F50F920F928FE392E0F7
:1014C000EDB7FEB7928381830E94D50887E592E04D
:1014D000EDB7FEB7928381830E94D5088BE692E038
:1014E000EDB7FEB7928381830E94D50883E892E02E
:1014F000EDB7FEB7928381830E94D5080F900F90BD
:10150000FFCF0F920F928CEB92E0EDB7FEB7928374
:1015100081830E94D5080F900F9008950F931F9319
:1015200002E017E0C80161E00E94F624C80160E013
:101530000E94A923C80160E070E040E050E00E94F2
:10154000ED20C80160E070E00E94F920C80161E070
:101550000E94F320C8016FE170E00E94E3211F9117
:101560000F910895EF92FF920F931F93CF93DF9304
:10157000EC0180915607909157078C179D0779F1E0
:10158000D0935707C093560782E097E060E070E081
:1015900044E950E020E830E00CE010E0EE24FF24C5
:1015A0000E94312382E097E061E00E94F32082E014
:1015B00097E06FEF7FEF0E94F92082E097E060E014
:1015C00070E046E950E00E94ED2082E097E061E0A3
:1015D0000E94F32082E097E0BE010E94E518DF91AF
:1015E000CF911F910F91FF90EF9008958BEC92E0B7
:1015F0000E94B20A08952F923F924F925F926F928B
:101600007F928F929F92AF92BF92CF92DF92EF9292
:10161000FF920F931F93DF93CF93CDB7DEB76897F9
:101620000FB6F894DEBF0FBECDBF8DB79EB7409109
:10163000640C5091650C4115510511F09A0104C0DC
:101640002091FA053091FB0560919C0670919D06F2
:10165000821B930B8617970730F52DB73EB74115C0
:10166000510521F44091FA055091FB0500D000D0BE
:10167000EDB7FEB731968CEC92E0ADB7BEB71296DF
:101680009C938E931197241B350B33832283758390
:1016900064830E94D508EDB7FEB736960FB6F8946E
:1016A000FEBF0FBEEDBF80912D07882311F4992452
:1016B00004C010922D07992493941A8219821C82D7
:1016C0001B82F89490919A068091010788249817BC
:1016D00011F0882483947894882009F441C03091D3
:1016E000F00680919A063817E9F020919A0600D00A
:1016F00000D0EDB7FEB731968DED92E0ADB7BEB735
:1017000012969C938E9311973283138224831582B1
:101710000E94D508EDB7FEB736960FB6F894FEBF17
:101720000FBEEDBF0E9432064091AB065091AC0651
:10173000569547958091F5069091F6062091AD0655
:101740003091AE06369527956091F7067091F806B0
:10175000621B730B841B950B0E9485049924939440
:10176000CE010196BE016D5F7F4F0E94B309D82E56
:1017700089819A81892B29F48B819C81892B09F499
:1017800057C0E090F106F090F2060091F306109138
:10179000F406CE010596BE01695F7F4F0E94690481
:1017A000882309F445C08D819E818A30910548F4D3
:1017B000E090F106F090F20680EE9FEFE80EF91E41
:1017C0000DC08637910510F420E009C0E090F106C5
:1017D000F090F206A0E2B0E0EA0EFB1E21E08F815D
:1017E00098858A30910538F40091F3061091F4063B
:1017F000005210400CC08637910538F00091F30676
:101800001091F406005E1F4F02C0222339F0C70179
:10181000B8010E948504992493940AC00E94B804D8
:101820006B817C8189819A810E94C5080E94240570
:10183000DD2009F411C2EDB7FEB73A970FB6F89460
:10184000FEBF0FBEEDBF319684EF92E0ADB7BEB7DD
:1018500012969C938E9311978091FD069091FE06AF
:10186000A091FF06B091000782839383A483B58380
:101870008091F9069091FA06A091FB06B091FC06C2
:1018800086839783A087B1870E94D508A090F90628
:10189000B090FA06C090FB06D090FC06E090FD06E2
:1018A000F090FE060091FF0610910007EDB7FEB71D
:1018B0003A960FB6F894FEBF0FBEEDBF8091340785
:1018C00090913507892B09F04CC08DB79EB70A97C8
:1018D0000FB6F8949EBF0FBE8DBFEDB7FEB7319621
:1018E00083E193E0ADB7BEB712969C938E931197A8
:1018F000A282B382C482D582E682F78200871187F2
:101900000E94D508A0924607B0924707C0924807A8
:10191000D0924907E0924A07F0924B0700934C0798
:1019200010934D07E0923A07F0923B0700933C0773
:1019300010933D07A0923607B0923707C092380740
:10194000D092390781E090E0909335078093340777
:10195000EDB7FEB73A960FB6F894FEBF0FBEEDBFD7
:101960007BC1A0924E07B0924F07C0925007D09211
:101970005107E0925207F0925307009354071093D7
:1019800055078DB79EB70A970FB6F8949EBF0FBE46
:101990008DBFEDB7FEB731968FE293E0ADB7BEB71E
:1019A00012969C938E931197A282B382C482D582A1
:1019B000E682F782008711870E94D508E0924207ED
:1019C000F09243070093440710934507A0923E0707
:1019D000B0923F07C0924007D0924107109235075E
:1019E00010923407EDB7FEB738960FB6F894FEBFE5
:1019F0000FBEEDBF89E493E0928381830E94D508F6
:101A000020914A0730914B0740914C0750914D0768
:101A10008091460790914707A0914807B0914907E8
:101A200089879A87AB87BC872D873E874F87588BDE
:101A30002091520730915307409154075091550718
:101A400080914E0790914F07A0915007B091510798
:101A5000898B9A8BAB8BBC8B2D8B3E8B4F8B588F8E
:101A60000F900F9034E8232E33E0332E28E9422ED6
:101A700023E0522E97EF692E93E0792E0F920F926A
:101A8000EAE5F3E0ADB7BEB71296FC93EE9311977B
:101A90000E94D5080F900F9029853A854B855C856B
:101AA0006D857E858F859889A988BA88CB88DC88E2
:101AB000ED88FE880F89188D0E94B7118C0197FF61
:101AC0000DC00F920F92EBE6F3E0ADB7BEB71296E2
:101AD000FC93EE9311970E94D508ADC000D00F92F1
:101AE000ADB7BEB712963C922E92119714969C9366
:101AF0008E9313970E94D5080F900F900F900F9020
:101B00000115110509F49CC080912E0790912F07B3
:101B10008017910728F4909331078093300704C011
:101B200010933107009330070F920F92EDB7FEB775
:101B3000528241820E94D5080F900F9040912E074B
:101B400050912F078091320790913307B8010E947E
:101B5000671097FD64C00F920F9280EB93E0ADB7D2
:101B6000BEB712969C938E9311970E94D5088BEC6A
:101B700093E0EDB7FEB7928381830E94D50800E021
:101B800010E0EE24FF240F900F9081EEC82E83E02A
:101B9000D82E3CC020913207309133072E0D3F1DC7
:101BA0008DB79EB70C970FB6F8949EBF0FBE8DBF32
:101BB000EDB7FEB73196ADB7BEB71296DC92CE92B6
:101BC000119713830283D90114964D915D916D9104
:101BD0007C91179744835583668377832D913D913C
:101BE0004D915C9120873187428753870E94D508A9
:101BF0000F5F1F4FE8E0F0E0EE0EFF1E8DB79EB7BF
:101C00000C960FB6F8949EBF0FBE8DBF8091300723
:101C1000909131070817190708F4BCCF0FC00F9235
:101C20000F92ADB7BEB712967C926E9211970E943A
:101C3000D508992493940F900F9020CF99249394D2
:101C40000F920F9282E194E0EDB7FEB79283818309
:101C50000E94D5080F900F90992031F10E94F50451
:101C60000E9424058091300790913107029710F06F
:101C70000E9459090E94F60A8820B1F0F8948091D8
:101C8000F00680939A068093010778940F920F9242
:101C900081E294E0ADB7BEB712969C938E931197F4
:101CA0000E94D5080F900F908091340790913507CE
:101CB000892B19F481E394E002C087E394E00E9449
:101CC000B20A68960FB6F894DEBF0FBECDBFCF91B3
:101CD000DF911F910F91FF90EF90DF90CF90BF9019
:101CE000AF909F908F907F906F905F904F903F90BC
:101CF0002F900895CF92DF92EF92FF920F931F9350
:101D0000CF93DF9386E999E040E855E260E070E028
:101D10000E94301B0F920F928BE394E0ADB7BEB7D9
:101D200012969C938E9311970E94D5080F900F9056
:101D300086E999E00E94101C0E948E0A0E94550AB2
:101D40000E943E0A0E942C04C090F006CC2DD0E0E8
:101D500034E0CC0FDD1F3A95E1F72AE3C22E26E0EE
:101D6000D22ECC0EDD1EFE01E25CF94FD6011C9690
:101D70006D917D918D919C911F9720813181428140
:101D80005381620F731F841F951F22E030E040E0F3
:101D900050E00E94D13E79018A01CE5BD94F688123
:101DA00079818A819B81F601208131814281538131
:101DB000620F731F841F951F22E030E040E050E067
:101DC0000E94D13EC801B7010E94D7058091AB06A1
:101DD0009091AC06969587954091F1065091F20648
:101DE0006091AD067091AE06769567952091F306E9
:101DF0003091F406620F731F840F951F0E947508BF
:101E000081E080932D0782E060E00E94211682E04D
:101E100061E00E94D41683E060E00E94211683E016
:101E200061E00E94D41681E06AEA79E042E050E085
:101E30000E941D1480E061EA79E042E050E00E94D7
:101E40001D1468EE73E080E090E00E94621384E667
:101E500090E090932F0780932E078DB79EB7209127
:101E6000640C3091650C2115310511F0A90104C0F5
:101E70004091FA055091FB0560919C0670919D067A
:101E8000841B950B861B970B80529340B0F48DB743
:101E90009EB72115310521F42091FA053091FB05FB
:101EA000821B930B861B970BF3E096958795FA950B
:101EB000E1F790932F0780932E0780912E07909142
:101EC0002F07E3E0880F991FEA95E1F70E94F139A7
:101ED000809332079093330700D00F9287E494E009
:101EE000ADB7BEB712969C938E93119780912E0733
:101EF00090912F0714969C938E9313970E94D50868
:101F000010923107109230074DB75EB72091640CE4
:101F10003091650C0F900F900F900F9021153105A7
:101F200021F42091FA053091FB0500D00F9288E54D
:101F300094E0EDB7FEB792838183421B530B548329
:101F400043830E94D5080F900F900F900F90DF9160
:101F5000CF911F910F91FF90EF90DF90CF90089558
:101F60004F925F926F927F928F929F92BF92CF9289
:101F7000DF92EF92FF920F931F93CF93DF934B016A
:101F80006A01290138017C01E60EF71E00E010E02D
:101F9000E801C80DD91DF701B080BB2099F0C2013E
:101FA000801B910B0297A0F06B2D772767FD709532
:101FB000C3010E945D3B0F5F1F4F0894E11CF11CA1
:101FC000009711F0219604C0F601B1926F01E0CFA5
:101FD000F6011082CE01DF91CF911F910F91FF90FA
:101FE000EF90DF90CF90BF909F908F907F906F90F9
:101FF0005F904F9008956F927F928F929F92AF92D1
:10200000BF92CF92DF92EF92FF920F931F93CF93E5
:10201000DF938C017B0159016A010E9454133B013B
:102020004C01C0E0D0E00894E108F10839C00E94FA
:10203000541366197709880999096A157B058C0577
:102040009D05C8F000D000D080E994E0EDB7FEB760
:1020500092838183A382B482C582D6820E94D508EE
:10206000CFEFDFEF8DB79EB706960FB6F8949EBF01
:102070000FBE8DBF1CC086E999E00E94B61B892B5C
:10208000B1F286E999E00E94E71BF801EC0FFD1F11
:1020900080838D3041F08A3031F0882321F0219601
:1020A000CE15DF0540F30C0F1D1FF8011082CE0185
:1020B000DF91CF911F910F91FF90EF90DF90CF9024
:1020C000BF90AF909F908F907F906F9008952F92C8
:1020D0003F924F925F926F927F928F929F92AF92B8
:1020E000BF92CF92DF92EF92FF920F931F93DF93F5
:1020F000CF93CDB7DEB7C856D0400FB6F894DEBF49
:102100000FBECDBF182F092F2B011A0100D000D010
:10211000EDB7FEB7319684EA94E0ADB7BEB712963C
:102120009C938E93119773836283558344830E949B
:10213000D508EDB7FEB736960FB6F894FEBF0FBEC2
:10214000EDBF1414150414F437FE1EC000D000D0E7
:10215000EDB7FEB731968FEC94E0ADB7BEB71296EF
:102160009C938E93119753824282358224820E94DF
:10217000D5082FEF3FEFEDB7FEB736960FB6F894C0
:10218000FEBF0FBEEDBFD8C0812F902F9C0139013B
:102190008824992486E999E067EE74E00E94E518A6
:1021A0000F920F92E9EEF4E0ADB7BEB71296FC9332
:1021B000EE9311970E94D5080F900F90CE0189964B
:1021C00060E270E028EE33E040E050E00E94FB0F58
:1021D0008F5F9F4F09F48CC00F920F92E3E0F5E000
:1021E000ADB7BEB71296FC93EE9311970E94D50837
:1021F0000F900F9089A5873509F04FC0CE018996C1
:1022000062E070E0AE014F5F5F4F24E130E005E136
:1022100015E00E94B00F8C01CE0101960E94263B72
:102220005B016C01CE018996B801AE014B5E5F4F38
:1022300024E130E005E115E00E94B00FCE014596A3
:102240000E94263B7B018C018DB79EB70A970FB683
:10225000F8949EBF0FBE8DBFEDB7FEB7319687E1F4
:1022600095E0ADB7BEB712969C938E931197A2825C
:10227000B382C482D582E682F782008711870E94EA
:10228000D508ADB7BEB71A960FB6F894BEBF0FBE4D
:10229000ADBF8214930434F011C00F920F9285E207
:1022A00095E040C0D3011496AD92BD92CD92DC92E0
:1022B0001797F301E082F182028313830894811C53
:1022C000911C88E090E0680E791E841495040CF44B
:1022D00061CF8E01075B1F4FC80160E270E028EEFE
:1022E00033E040E050E00E94FB0F8F5F9F4F19F4F6
:1022F0002FEF3FEF21C0F8018081853479F40F92F0
:102300000F928FE395E0ADB7BEB712969C938E9374
:1023100011970E94D50820E030E00CC00F920F9278
:102320008EE495E0EDB7FEB7928381830E94D508D5
:102330002FEF3FEF0F900F90C901C859DF4F0FB635
:10234000F894DEBF0FBECDBFCF91DF911F910F91EB
:10235000FF90EF90DF90CF90BF90AF909F908F90C5
:102360007F906F905F904F903F902F9008952F92A5
:102370003F924F925F926F927F928F929F92AF9215
:10238000BF92CF92DF92EF92FF920F931F93DF9352
:10239000CF93CDB7DEB7EC970FB6F894DEBF0FBE84
:1023A000CDBF29A73AA74BA75CA76DA77EA78FA78C
:1023B00098ABA9AABAAACBAADCAAEDAAFEAA0FAB2F
:1023C00018AF2DB73EB73CAF2BAFEDA4FEA40FA5C1
:1023D00018A9A9A4BAA4CBA4DCA46DA87EA88FA830
:1023E00098AC29A83AA84BA85CA88DB79EB780974F
:1023F0000FB6F8949EBF0FBE8DBFADB7BEB7119696
:10240000BAAFA9AFEDB7FEB772970FB6F894FEBF9B
:102410000FBEEDBF319680E695E0ADB7BEB7129620
:102420009C938E931197E282F38204831583A68294
:10243000B782C086D1866286738684869586268614
:102440003786408A518A0E94D508EDB7FEB731968B
:102450008EE895E0ADB7BEB712969C938E93119718
:10246000E282F38204831583A682B782C086D18676
:10247000628673868486958626863786408A518A48
:102480000E94D508EDB7FEB772960FB6F894FEBF5E
:102490000FBEEDBF86E999E060EA75E00E94E218A0
:1024A00086E999E0B801A7012AE030E00E948E1881
:1024B00086E999E065E175E00E94E21886E999E015
:1024C000B601A5012AE030E00E948E1886E999E065
:1024D00065E175E00E94E21886E999E0B401A30184
:1024E0002AE030E00E948E1886E999E065E175E007
:1024F0000E94E21886E999E0B201A1012AE030E0E9
:102500000E94CE1889AD9AAD60E270E020E137E21A
:1025100040E050E00E94FB0F8F5F9F4F19F40FEFD8
:102520001FEF59C089AD9AAD60E070E0AE014F5F1A
:102530005F4F24E130E005E115E00E94B00FBC01DF
:1025400089818E3489F00F920F9283EA95E0ADB7BE
:10255000BEB712969C938E9311970E94D5080FEFE9
:102560001FEF0F900F9037C085E1E82EF12CEC0E95
:10257000FD1E89AD9AADA70124E130E009EB15E01D
:102580000E94B00F00D00F928BEB95E0EDB7FEB735
:1025900092838183F482E3820E94D5080F900F908A
:1025A0000F900F90C7010E94263B8B0100D00F9225
:1025B000EDB7FEB731962EEB35E0ADB7BEB712964C
:1025C0003C932E931197738362830E94D5080F90DA
:1025D0000F900F900F90C801EBADFCAD0FB6F894C3
:1025E000FEBF0FBEEDBFEC960FB6F894DEBF0FBE78
:1025F000CDBFCF91DF911F910F91FF90EF90DF90B2
:10260000CF90BF90AF909F908F907F906F905F9092
:102610004F903F902F9008951F920F920FB60F92F8
:1026200011242F933F938F939F93AF93BF938091E8
:10263000610790916207A0916307B09164073091A0
:1026400065070196A11DB11D232F2D5F2D3720F0A9
:102650002D570196A11DB11D209365078093610739
:1026600090936207A0936307B093640780915D071E
:1026700090915E07A0915F07B09160070196A11D40
:10268000B11D80935D0790935E07A0935F07B093A1
:102690006007BF91AF919F918F913F912F910F90C4
:1026A0000FBE0F901F9018958FB7F8942091610777
:1026B0003091620740916307509164078FBFB90161
:1026C000CA0108959B01AC017FB7F89480915D0722
:1026D00090915E07A0915F07B091600766B5A89BD7
:1026E00005C06F3F19F00196A11DB11D7FBFBA2F24
:1026F000A92F982F8827860F911DA11DB11D62E07B
:10270000880F991FAA1FBB1F6A95D1F7BC012DC066
:10271000FFB7F89480915D0790915E07A0915F07E5
:10272000B0916007E6B5A89B05C0EF3F19F0019690
:10273000A11DB11DFFBFBA2FA92F982F88278E0F7B
:10274000911DA11DB11DE2E0880F991FAA1FBB1F9B
:10275000EA95D1F7861B970B885E9340C8F221500B
:1027600030404040504068517C4F211531054105B3
:10277000510571F60895789484B5826084BD84B55E
:10278000816084BD85B5826085BD85B5816085BD6C
:10279000EEE6F0E0808181608083E1E8F0E0108285
:1027A000808182608083808181608083E0E8F0E0C6
:1027B000808181608083E1EBF0E0808184608083B0
:1027C000E0EBF0E0808181608083E1E9F0E08081EE
:1027D00082608083808181608083E0E9F0E0808195
:1027E00081608083E1EAF0E0808182608083808183
:1027F00081608083E0EAF0E0808181608083E1E2B3
:10280000F1E0808182608083808181608083E0E26A
:10281000F1E0808181608083EAE7F0E0808184607C
:1028200080838081826080838081816080838081D9
:10283000806880831092C1000895883008F078C0C5
:10284000E82FF0E0EE0FFF1FEA59F84F7183608325
:102850008330D9F0843030F4813009F444C08230C0
:1028600060F439C0853051F18530D8F0863009F4F4
:1028700046C0873009F05CC04FC0809169008C7FF2
:10288000842B80936900E89A089580916900440F31
:10289000551F440F551F837F842B80936900E99A4D
:1028A00008958091690074E0440F551F7A95E1F70F
:1028B0008F7C842B80936900EA9A08958091690047
:1028C00066E0440F551F6A95E1F78F73842B809360
:1028D0006900EB9A089580916A008C7F842B809325
:1028E0006A00EC9A089580916A00440F551F440FC6
:1028F000551F837F842B80936A00ED9A0895809101
:102900006A0024E0440F551F2A95E1F78F7C842B41
:1029100080936A00EE9A089580916A0096E0440FD1
:10292000551F9A95E1F78F73842B80936A00EF9A75
:1029300008951F920F920FB60F920BB60F921124AB
:102940002F933F934F935F936F937F938F939F93B7
:10295000AF93BF93EF93FF9380916A0790916B07BA
:10296000892B29F0E0916A07F0916B071995FF9187
:10297000EF91BF91AF919F918F917F916F915F91F7
:102980004F913F912F910F900BBE0F900FBE0F9064
:102990001F9018951F920F920FB60F920BB60F92C1
:1029A00011242F933F934F935F936F937F938F9354
:1029B0009F93AF93BF93EF93FF9380916C07909198
:1029C0006D07892B29F0E0916C07F0916D0719953F
:1029D000FF91EF91BF91AF919F918F917F916F91F7
:1029E0005F914F913F912F910F900BBE0F900FBEB3
:1029F0000F901F9018951F920F920FB60F920BB663
:102A00000F9211242F933F934F935F936F937F9374
:102A10008F939F93AF93BF93EF93FF9380916E0734
:102A200090916F07892B29F0E0916E07F0916F0765
:102A30001995FF91EF91BF91AF919F918F917F91E8
:102A40006F915F914F913F912F910F900BBE0F901F
:102A50000FBE0F901F9018951F920F920FB60F92F6
:102A60000BB60F9211242F933F934F935F936F9365
:102A70007F938F939F93AF93BF93EF93FF93809137
:102A8000700790917107892B29F0E0917007F09100
:102A900071071995FF91EF91BF91AF919F918F9120
:102AA0007F916F915F914F913F912F910F900BBE4E
:102AB0000F900FBE0F901F9018951F920F920FB698
:102AC0000F920BB60F9211242F933F934F935F9366
:102AD0006F937F938F939F93AF93BF93EF93FF93E6
:102AE0008091660790916707892B29F0E09166072E
:102AF000F09167071995FF91EF91BF91AF919F9169
:102B00008F917F916F915F914F913F912F910F9096
:102B10000BBE0F900FBE0F901F9018951F920F9233
:102B20000FB60F920BB60F9211242F933F934F9332
:102B30005F936F937F938F939F93AF93BF93EF9325
:102B4000FF938091680790916907892B29F0E091A4
:102B50006807F09169071995FF91EF91BF91AF91C7
:102B60009F918F917F916F915F914F913F912F91A5
:102B70000F900BBE0F900FBE0F901F9018951F92D5
:102B80000F920FB60F920BB60F9211242F933F9313
:102B90004F935F936F937F938F939F93AF93BF9365
:102BA000EF93FF938091720790917307892B29F01F
:102BB000E0917207F09173071995FF91EF91BF9122
:102BC000AF919F918F917F916F915F914F913F91C5
:102BD0002F910F900BBE0F900FBE0F901F90189566
:102BE0001F920F920FB60F920BB60F9211242F93D4
:102BF0003F934F935F936F937F938F939F93AF9385
:102C0000BF93EF93FF938091740790917507892B81
:102C100029F0E0917407F09175071995FF91EF91F4
:102C2000BF91AF919F918F917F916F915F914F91E4
:102C30003F912F910F900BBE0F900FBE0F901F90E2
:102C40001895CF93DF93482F50E0CA0188589E4FC4
:102C5000FC0134914E5C5E4FFA018491882369F146
:102C600090E0880F991FFC01EC51FF4FA591B491A2
:102C7000FC01E250FF4FC591D491662351F42FB768
:102C8000F8948C91932F909589238C938881892334
:102C90000BC0623061F42FB7F8948C91932F90950C
:102CA00089238C938881832B88832FBF06C09FB78D
:102CB000F8948C91832B8C939FBFDF91CF910895D3
:102CC000893009F449C08A30A0F4843051F185304C
:102CD00040F4823079F1833000F5813009F063C02F
:102CE00026C0873079F1883098F5863009F05BC0CE
:102CF00025C08D3009F442C08E3028F48B30B1F1FC
:102D00008C30C0F52DC0803109F442C0813109F406
:102D100045C08F3009F047C037C0809180008F7761
:102D200003C0809180008F7D80938000089584B5DA
:102D30008F7702C084B58F7D84BD08958091B000E7
:102D40008F7703C08091B0008F7D8093B00008958D
:102D5000809190008F7707C0809190008F7D03C095
:102D600080919000877F8093900008958091A000CB
:102D70008F7707C08091A0008F7D03C08091A00055
:102D8000877F8093A0000895809120018F7703C0F2
:102D9000809120018F7D80932001089580912001F2
:102DA000877F809320010895FF920F931F93F62E43
:102DB000482F50E0CA0182549E4FFC012491CA0161
:102DC00088589E4FFC0114914E5C5E4FFA010491AD
:102DD0000023C9F0222319F0822F0E946016E02FF1
:102DE000F0E0EE0FFF1FE250FF4FA591B4919FB7A7
:102DF000F894FF2021F48C911095812302C08C91CE
:102E0000812B8C939FBF1F910F91FF9008950F937B
:102E10001F93482F50E0CA0182549E4FFC01249119
:102E2000CA0188589E4FFC0104914E5C5E4FFA0126
:102E30001491112319F420E030E015C0222319F079
:102E4000822F0E946016812F90E0880F991F885E64
:102E50009E4FFC01A591B4918C9120E030E080233D
:102E600011F021E030E0C9011F910F910895382F32
:102E7000863308F0365320917B00832F8695869504
:102E8000869590E08170907043E0880F991F4A9575
:102E9000E1F7277F282B20937B0037708091A606CF
:102EA0008295880F880F807C832B80937C00809193
:102EB0007A00806480937A0080917A0086FDFCCF4E
:102EC0002091780040917900942F80E030E0282B09
:102ED000392BC90108952F923F924F925F926F92C2
:102EE0007F928F929F92AF92BF92CF92DF92EF929A
:102EF000FF920F931F93DF93CF93CDB7DEB73B01C4
:102F00004C0119012A016E897F89888D998D6A1972
:102F10007B098C099D09621A730A840A950AA40127
:102F200093010E94693EE218F30804091509A801FB
:102F300097010E94D13E2A0D3B1D4C1D5D1DB9011C
:102F4000CA01CF91DF911F910F91FF90EF90DF9019
:102F5000CF90BF90AF909F908F907F906F905F9039
:102F60004F903F902F900895CF92DF92EF92FF9273
:102F70000F931F93CF93DF937C016B018A01C0E015
:102F8000D0E00FC0D6016D916D01D701ED91FC919C
:102F90000190F081E02DC7011995C80FD91F01508C
:102FA00010400115110571F7CE01DF91CF911F91EE
:102FB0000F91FF90EF90DF90CF900895EF92FF92E6
:102FC0000F931F938C01DC01ED91FC910190F08136
:102FD000E02D6DE019957C01D801ED91FC910190F7
:102FE000F081E02DC8016AE019959C012E0D3F1D6E
:102FF000C9011F910F91FF90EF900895EF92FF92FA
:103000000F931F937C01DC01ED91FC910190F08105
:10301000E02D19958C01C7010E94DE17080F191FBA
:10302000C8011F910F91FF90EF900895CF93DF9308
:10303000DB010D900020E9F71197A61BB70BEC01FF
:10304000E881F9810280F381E02DAD011995DF91CE
:10305000CF9108954F925F927F928F929F92AF92FD
:10306000BF92CF92DF92EF92FF920F931F93DF9365
:10307000CF93CDB7DEB7A1970FB6F894DEBF0FBEE2
:10308000CDBF2C01742ECB01223008F42AE019A206
:1030900031E2C32ED12CCC0EDD1E822E9924AA241F
:1030A000BB24672D752FA50194010E94AF3E7901C5
:1030B0008A01C801B701A50194010E94693E472D0C
:1030C000461B0894C108D1084A3014F4405D01C081
:1030D000495CF6014083E114F1040105110521F07A
:1030E0007E2C5F2DC801DDCFC201B6010E941618EB
:1030F000A1960FB6F894DEBF0FBECDBFCF91DF9182
:103100001F910F91FF90EF90DF90CF90BF90AF9005
:103110009F908F907F905F904F900895CF92DF9215
:10312000EF92FF920F931F93CF93DF93EC016A010D
:103130007B012115310541F4E881F9810190F0818D
:10314000E02D642F19951FC02A303105D1F477FF87
:1031500017C0E881F9810190F081E02D6DE21995A9
:103160008C0144275527BA014C195D096E097F0966
:10317000CE012AE00E942A189801280F391F04C0A6
:103180002AE00E942A189C01C901DF91CF911F916A
:103190000F91FF90EF90DF90CF900895EF92FF9204
:1031A0000F931F937C010E948E188C01C7010E940F
:1031B000DE179C01200F311FC9011F910F91FF9055
:1031C000EF9008950E9416180895EF92FF920F93C2
:1031D0001F937C010E9416188C01C7010E94DE1704
:1031E000080F191FC8011F910F91FF90EF900895CC
:1031F000CF93DF930E94BB130E947A0ECBEED9E1EE
:103200000E94FB0A2097E1F30E94EB19F9CF089581
:103210001F920F920FB60F920BB60F9211242F939D
:103220003F934F938F939F93EF93FF934091C600EB
:103230002091B6073091B7072F5F3F4F2F73307043
:103240008091B8079091B9072817390759F0E09194
:10325000B607F091B707EA58F84F40833093B707A5
:103260002093B607FF91EF919F918F914F913F91DE
:103270002F910F900BBE0F900FBE0F901F901895BF
:1032800008951F920F920FB60F920BB60F92112452
:103290002F933F934F938F939F93EF93FF9340917F
:1032A000CE0020913E0830913F082F5F3F4F2F7393
:1032B000307080914008909141082817390759F0E3
:1032C000E0913E08F0913F08E250F84F4083309380
:1032D0003F0820933E08FF91EF919F918F914F916E
:1032E0003F912F910F900BBE0F900FBE0F901F902C
:1032F000189508951F920F920FB60F920BB60F926A
:1033000011242F933F934F938F939F93EF93FF93AA
:103310004091D6002091C6083091C7082F5F3F4FDB
:103320002F7330708091C8089091C9082817390709
:1033300059F0E091C608F091C708EA57F74F40836B
:103340003093C7082093C608FF91EF919F918F910A
:103350004F913F912F910F900BBE0F900FBE0F908A
:103360001F90189508951F920F920FB60F920BB6EB
:103370000F9211242F933F934F938F939F93EF932B
:10338000FF934091360120914E0930914F092F5FF4
:103390003F4F2F7330708091500990915109281739
:1033A000390759F0E0914E09F0914F09E25FF64F6D
:1033B000408330934F0920934E09FF91EF919F91E5
:1033C0008F914F913F912F910F900BBE0F900FBE99
:1033D0000F901F901895E091A209F091A309E05C6D
:1033E000FF4F8191919120813181821B930B8F73CB
:1033F0009070892B11F00E940719E091C109F0919A
:10340000C209E05CFF4F8191919120813181821B43
:10341000930B8F739070892B11F00E944019E091EB
:10342000E009F091E109E05CFF4F819191912081E9
:103430003181821B930B8F739070892B11F00E9446
:103440007919E091FF09F091000AE05CFF4F81914A
:10345000919120813181821B930B8F739070892B06
:1034600011F00E94B21908951F920F920FB60F9299
:103470000BB60F9211242F933F938F939F93EF934B
:10348000FF932091FA073091FB078091FC07909100
:10349000FD072817390731F48091C1008F7D809393
:1034A000C10014C0E091FC07F091FD07E654F84F0D
:1034B00020818091FC079091FD0701968F73907099
:1034C0009093FD078093FC072093C600FF91EF9136
:1034D0009F918F913F912F910F900BBE0F900FBE38
:1034E0000F901F9018951F920F920FB60F920BB668
:1034F0000F9211242F933F938F939F93EF93FF93FA
:1035000020918208309183088091840890918508E9
:103510002817390731F48091C9008F7D8093C90045
:1035200014C0E0918408F0918508EE5BF74F20818C
:10353000809184089091850801968F739070909384
:103540008508809384082093CE00FF91EF919F918E
:103550008F913F912F910F900BBE0F900FBE0F9048
:103560001F9018951F920F920FB60F920BB60F92E5
:1035700011242F933F938F939F93EF93FF93209169
:103580000A0930910B0980910C0990910D092817B7
:10359000390731F48091D1008F7D8093D10014C020
:1035A000E0910C09F0910D09E653F74F20818091CD
:1035B0000C0990910D0901968F73907090930D09ED
:1035C00080930C092093D600FF91EF919F918F91EA
:1035D0003F912F910F900BBE0F900FBE0F901F9039
:1035E00018951F920F920FB60F920BB60F921124DF
:1035F0002F933F938F939F93EF93FF932091920983
:103600003091930980919409909195092817390771
:1036100031F4809131018F7D8093310114C0E091AC
:103620009409F0919509EE5AF64F20818091940902
:103630009091950901968F7390709093950980935E
:10364000940920933601FF91EF919F918F913F91C3
:103650002F910F900BBE0F900FBE0F901F901895DB
:10366000AF92BF92DF92EF92FF920F931F93CF938F
:10367000DF93EC017A018B01DD24403081EE5807A5
:1036800080E0680780E0780711F0DD24D39491E0B2
:10369000A92EB12CEC89FD89DD2069F0C5010E8CC5
:1036A00002C0880F991F0A94E2F7808360E079E0F6
:1036B0008DE390E005C0108260E874E88EE190E050
:1036C000A80197010E94AF3E215030404040504039
:1036D000569547953795279580E12030380720F09B
:1036E000DD2011F0DD24D6CFE889F9893083EA891D
:1036F000FB892083EE89FF89408121E030E0C90108
:103700000A8C02C0880F991F0A94E2F7482B408365
:10371000EE89FF894081C9010B8C02C0880F991F77
:103720000A94E2F7482B4083EE89FF894081C90162
:103730000C8C02C0880F991F0A94E2F7482B408333
:10374000EE89FF8980810D8C02C0220F331F0A94FD
:10375000E2F7209528232083DF91CF911F910F91CD
:10376000FF90EF90DF90BF90AF900895DC011C9622
:10377000ED91FC911D97E05CFF4F2191319180818B
:103780009181281B390B2F733070C9010895DC011A
:103790001C96ED91FC911D97E05CFF4F20813181DB
:1037A000E054F040DF01AE5BBF4F8D919C911197CB
:1037B0002817390719F42FEF3FEF07C08D919C911F
:1037C000E80FF91F8081282F30E0C9010895DC013E
:1037D0001C96ED91FC911D97E05CFF4F208131819B
:1037E000E054F040DF01AE5BBF4F8D919C9111978B
:1037F0002817390719F42FEF3FEF10C08D919C91D6
:103800001197E80FF91F20818D919C9111970196D6
:103810008F73907011969C938E9330E0C901089538
:10382000FC0186859785DC01A05CBF4FFC01EE5B47
:10383000FF4F2D913C911197808191812817390775
:10384000C1F70895CF93DF93EC01EE85FF85E05C2F
:10385000FF4F20813181E054F0402F5F3F4F2F73A5
:103860003070DF01AE5BBF4F8D919C91119728178F
:103870003907D1F3E05CFF4F80819181E054F04043
:10388000E80FF91F6083EE85FF85E05CFF4F318311
:103890002083EE89FF89208181E090E00D8C02C0B9
:1038A000880F991F0A94E2F7282B208381E090E08B
:1038B000DF91CF9108951F93109299091092980962
:1038C00028EE33E040E050E020939A0930939B09C2
:1038D00040939C0950939D0963EB76E070939709A0
:1038E0006093960986E797E09093A3098093A209D5
:1038F0008AEB97E09093A5098093A40985EC90E06A
:103900009093A7098093A60984EC90E09093A9096D
:103910008093A80980EC90E09093AB098093AA096A
:1039200081EC90E09093AD098093AC0986EC90E037
:103930009093AF098093AE0914E01093B009B3E0FF
:10394000B093B109A7E0A093B209F5E0F093B309F1
:10395000E1E0E093B4091092B8091092B7092093FE
:10396000B9093093BA094093BB095093BC097093CD
:10397000B6096093B5098EEF97E09093C2098093E2
:10398000C10982E498E09093C4098093C3098DEC47
:1039900090E09093C6098093C5098CEC90E09093D9
:1039A000C8098093C70988EC90E09093CA09809376
:1039B000C90989EC90E09093CC098093CB098EECF7
:1039C00090E09093CE098093CD091093CF09B093E6
:1039D000D009A093D109F093D209E093D3091092B2
:1039E000D7091092D6092093D8093093D90940936A
:1039F000DA095093DB097093D5096093D40986E8FE
:103A000098E09093E1098093E0098AEC98E0909324
:103A1000E3098093E20985ED90E09093E5098093B6
:103A2000E40984ED90E09093E7098093E60980ED46
:103A300090E09093E9098093E80981ED90E09093FC
:103A4000EB098093EA0986ED90E09093ED0980936D
:103A5000EC091093EE09B093EF09A093F009F093ED
:103A6000F109E093F2091092F6091092F5092093FA
:103A7000F7093093F8094093F9095093FA097093C4
:103A8000F4096093F3098EE099E09093000A809323
:103A9000FF0982E599E09093020A8093010A85E389
:103AA00091E09093040A8093030A84E391E0909359
:103AB000060A8093050A80E391E09093080A8093B8
:103AC000070A81E391E090930A0A8093090A86E34A
:103AD00091E090930C0A80930B0A10930D0AB09317
:103AE0000E0AA0930F0AF093100AE093110A1F9197
:103AF0000895FC01758364837187608757834683CB
:103B000053874287158A158614861786168621E004
:103B1000248B8FEF9FEF938B828B918B808B268BE7
:103B200008952F923F924F925F926F927F928F9261
:103B30009F92AF92BF92CF92DF92EF92FF920F933C
:103B40001F93DF93CF93CDB7DEB72E970FB6F894C0
:103B5000DEBF0FBECDBF9E878D871B015E834D8369
:103B6000A701260171E0C72ED12CC21AD30AC901C0
:103B7000880F991F66277727681B790B7A836983DB
:103B80006D807E8008946108710883E0882E912CF6
:103B90008E0C9F1C790181E090E09C838B83AA248A
:103BA000BB2410E0D801A170B070B887AF83FA01D0
:103BB0003196FA87E987B801627070707C876B87ED
:103BC00077C0D7FC0AC00894E108F10889819A817E
:103BD00002969A838983C80ED91E0894A11CB11C31
:103BE000AB81BC811296BC83AB83EF81F885EF2B50
:103BF00041F1AD85BE85ED91FC911197B501620D46
:103C0000731D4D815E814E195F099701220F331F8D
:103C100089859A85280F391F0284F385E02DCD010F
:103C200082011995AD85BE85ED91FC911197B70183
:103C3000620D731D0284F385E02DCD01A301940173
:103C40001995EB85FC85EF2B41F1AD85BE85ED9196
:103C5000FC911197B1016A197B094D815E814E1962
:103C60005F099701220F331F89859A85280F391F15
:103C70000284F385E02DCD0182011995AD85BE85C5
:103C8000ED91FC911197B1016E197F090284F385C2
:103C9000E02DCD01A30194011995EB81FC81CE0E9D
:103CA000DF1E08946108710862E070E0860E971EBE
:103CB000AE14BF040CF485CF2E960FB6F894DEBF79
:103CC0000FBECDBFCF91DF911F910F91FF90EF906D
:103CD000DF90CF90BF90AF909F908F907F906F902C
:103CE0005F904F903F902F9008956F927F928F92A8
:103CF0009F92AF92BF92CF92DF92EF92FF920F937B
:103D00001F937C014B013A0159016801DC01ED91DF
:103D1000FC91421B530B220F331F2F5F3F4F028436
:103D2000F385E02D1995C701B401A301950103E0C6
:103D3000EE24FF240E94911D1F910F91FF90EF90A0
:103D4000DF90CF90BF90AF909F908F907F906F90BB
:103D500008952F923F924F925F926F927F928F922F
:103D60009F92AF92BF92CF92DF92EF92FF920F930A
:103D70001F93DF93CF9300D00F92CDB7DEB73C01F6
:103D80007C836B836A015901FA82E98222243324FD
:103D90009801241B350B37FF03C0309521953F4F09
:103DA000C5014B815C81841B950B97FF03C09095E7
:103DB00081959F4F821793075CF481E0282E312C68
:103DC000C601CB80DC809C838B83C80185015C01AC
:103DD0008B819C81A816B90644F4C501AB80BC80D8
:103DE0009C838B83C80186016C012501AB81BC815A
:103DF0004A1A5B0A7801EC18FD08F7FE04C0F0943B
:103E0000E194F108F394C016D10624F088248A9432
:103E1000982C03C0B1E08B2E912CC20162E070E0BF
:103E20000E949C3E8B0125C0D301ED91FC91211491
:103E3000310441F00480F581E02DC301B6014B81CE
:103E40005C8107C00480F581E02DC3016B817C811A
:103E5000A60129813A8119950E191F0917FF04C07F
:103E6000C80CD91C040D151DEB81FC813196FC8317
:103E7000EB834B815C81A416B506B4F60F900F90CE
:103E80000F900F90CF91DF911F910F91FF90EF90C6
:103E9000DF90CF90BF90AF909F908F907F906F906A
:103EA0005F904F903F902F9008954F925F926F9246
:103EB0007F928F929F92AF92BF92CF92DF92EF92BA
:103EC000FF920F931F936C015B014A013901280196
:103ED000DC01ED91FC910484F585E02D87011995B5
:103EE000D601ED91FC91A40141505040440D551D67
:103EF0000484F585E02DC601B50193011995D6011D
:103F0000ED91FC910284F385E02DC601B501A40179
:103F100092011995D601ED91FC910894A108B10880
:103F2000A60CB71C0284F385E02DC601B501A401DF
:103F3000920119951F910F91FF90EF90DF90CF9014
:103F4000BF90AF909F908F907F906F905F904F90B9
:103F500008952F923F924F925F926F927F928F922D
:103F60009F92AF92BF92CF92DF92EF92FF920F9308
:103F70001F93DF93CF93CDB7DEB72F970FB6F8948B
:103F8000DEBF0FBECDBF5C015E834D8318870F83FC
:103F9000FA86E986CB86DC0118968D919C9119975B
:103FA000681779070CF0A4C01A968D919C911B9705
:103FB000481759070CF09CC0EC2DF0E0FF87EE8706
:103FC000CF01880F991F880F991F8E0F9F1F860F93
:103FD000971F181619060CF08BC0CF01A3E0880FAD
:103FE000991FAA95E1F7840F951F181619060CF072
:103FF0007FC085E0289FA00111245A8349832B01AB
:104000001B011C825C81553011F480E005C0E98100
:10401000FA81EC5FFD4F84912C863D866D807E8019
:1040200043011B82C82EDD2480FF1CC0D501ED9109
:10403000FC91BB85B13049F40480F581E02DC501C8
:10404000B201A3012F81388522C00088F189E02DBB
:10405000C5016C857D85A4012E853F858901EF8092
:10406000F88423C0E985FA852F813885E217F307A4
:10407000E9F0D501ED91FC91BB85B13051F404809C
:10408000F581E02DC501B201A30129853A85199575
:104090000DC00088F189E02DC5016C857D85A401E6
:1040A0002E853F858901E984FA841995EB81EF5FBC
:1040B000EB832E853F85820E931E0894611C711C34
:1040C000E83021F0D594C7948C2DACCF3C813F5F74
:1040D0003C834E855F85240E351E0894411C511C7F
:1040E00089819A8101969A838983363009F08ACF33
:1040F0002F960FB6F894DEBF0FBECDBFCF91DF91E4
:104100001F910F91FF90EF90DF90CF90BF90AF90F5
:104110009F908F907F906F905F904F903F902F90E7
:104120000895CF92EF92FF920F931F93CF93DF9357
:10413000EC01262F6A3061F42C8930E003E0220F75
:10414000331F0A95E1F78E859F85820F931F37C035
:104150006D30C9F16C857D854E855F85088919892B
:10416000EA88FB88CC880E94A91F2C8986E0289FBA
:10417000B00111248C859D85680F791F7D876C8720
:104180008E89882301F1422F50E08AEF9FEF9C0136
:10419000429FC001439F900D529F900D112428858E
:1041A0003985820F931F861797076CF413E0440F2D
:1041B000551F1A95E1F78E859F85840F951F9F8760
:1041C0008E871D861C8681E090E0DF91CF911F9144
:1041D0000F91FF90EF90CF900895FC017587648751
:1041E000578746870895FC01662309F461E0648BD4
:1041F0000895FC01718B608B738B628B0895FC01B9
:104200001382128283EC96E09183808360A341A3A2
:1042100022A381E0878B14A213A20895DC01579694
:104220008C915797882329F06EBD0DB407FEFDCF02
:10423000089530E840E050E070E0832F90E086235E
:1042400097235896ED91FC91599795962C919597B7
:10425000892B21F08081822B808304C0808120956E
:10426000282320835A96ED91FC915B978081969646
:104270009C919697892B80835A96ED91FC915B9740
:10428000908196968C919697809589238083369518
:104290004F5F5F4F4830510581F608950F931F938C
:1042A0008C01DC015E96ED91FC915F979081989670
:1042B0008C9198978095892380835C96ED91FC91F1
:1042C0005D97908197968C91809589238083C80112
:1042D0000E940E21D8015C96ED91FC915D97808142
:1042E00097969C91892B80831F910F9108950F932E
:1042F0001F938C01DC015E96ED91FC915F978081AC
:1043000098969C919897892B80835C96ED91FC916F
:104310005D97908197968C91809589238083C801C1
:104320000E940E21D8015C96ED91FC915D978081F1
:1043300097969C91892B80831F910F910895CF921E
:10434000DF92EF92FF920F931F937C01162FC42EE2
:10435000D22E6AE20E944E21C70160E00E947721BE
:10436000F70161A5610FC7010E947721C70160E0D5
:104370000E947721F70161A56D0DC7010E94772189
:10438000C7016BE20E944E21C70160E00E947721C5
:10439000F70162A56C0DC7010E947721C70160E09B
:1043A0000E947721F70162A5600FC7010E94772163
:1043B000C7016CE20E944E211F910F91FF90EF9078
:1043C000DF90CF900895EF92FF920F931F93CF93BA
:1043D000DF93EC017B01288521500A85015060E0C4
:1043E00040E00E949F21EE8DFF8D808198A5892B52
:1043F0008083EC8DFD8D90818FA1809589238083B2
:104400001A850EC0088509C0CE016F2D0E940E21AD
:10441000CE016E2D0E940E2101500023A9F71150EC
:10442000112381F7EC8DFD8D80819FA1892B8083E5
:10443000DF91CF911F910F91FF90EF900895FF9220
:104440000F931F938C01F62E672FDC015E96ED9182
:10445000FC915F97808198969C919897892B808397
:104460005C96ED91FC915D97908197968C918095EB
:1044700089238083C8010E940E21C8016F2D0E94EC
:104480000E21D8015C96ED91FC915D978081979605
:104490009C91892B80831F910F91FF900895FF922B
:1044A0000F931F93CF93DF93EC01F22E132F77FD21
:1044B0002EC088859985681779074CF557FD27C068
:1044C0008A859B854817590714F5262F2F5F042FDF
:1044D0000F5FCE010E949F21EE8DFF8D808198A5F8
:1044E000892B8083EC8DFD8D90818FA18095892310
:1044F0008083CE01612F0E940E21CE016F2D0E947C
:104500000E21EC8DFD8D80819FA1892B8083DF9111
:10451000CF911F910F91FF900895DF92EF92FF923C
:104520000F931F93CF93DF93EC01FB017901D02E02
:104530008885998568177907D4F52A853B854217C0
:104540005307ACF5C701840F951F281739071CF4D2
:104550007901E41AF50A042F01500E0DCE016E2FD9
:104560002E2F0E949F21EE8DFF8D808198A5892B93
:104570008083EC8DFD8D90818FA180958923808330
:1045800008C0CE01612F0E940E21CE016D2D0E9428
:104590000E210894E108F1088FEFE8168FEFF80676
:1045A00081F7EC8DFD8D80819FA1892B8083DF9128
:1045B000CF911F910F91FF90EF90DF900895DF92C0
:1045C000EF92FF920F931F93CF93DF93EC01FA01C9
:1045D0007901D02E2885398562177307D4F58A852D
:1045E0009B8548175907ACF5C701860F971F2817F9
:1045F00039071CF47901E61AF70A262F21502E0DEF
:10460000CE014E2F0E2F0E949F21EE8DFF8D8081B7
:1046100098A5892B8083EC8DFD8D90818FA180954D
:104620008923808308C0CE01612F0E940E21CE0114
:104630006D2D0E940E210894E108F1088FEFE81615
:104640008FEFF80681F7EC8DFD8D80819FA1892B7E
:104650008083DF91CF911F910F91FF90EF90DF90BA
:104660000895AF92BF92CF92DF92EF92FF920F9395
:104670001F93CF93DF936C015901E801DC01189679
:104680002D913C911997621773070CF057C01A9639
:10469000ED91FC911B974E175F070CF04FC0C501C1
:1046A000860F971F281739071CF45901A61AB70A55
:1046B000CE01840F951FE817F9071CF4EF01C41B06
:1046C000D50B262F21502A0D042F01500C0FC601A7
:1046D0000E949F21D6015E96ED91FC915F978081AB
:1046E00098969C919897892B80835C96ED91FC918C
:1046F0005D97908197968C918095892380838E0118
:104700000EC0C6016F2D0E940E21C6016E2D0E94A3
:104710000E2121971C161D06A4F3015010401016FF
:10472000110614F4E501F6CFD6015C96ED91FC91EB
:104730005D97808197969C91892B8083DF91CF91A3
:104740001F910F91FF90EF90DF90CF90BF90AF90AF
:1047500008951F93CF93DF93EC01162F66E30E9419
:104760004E2113701D8B113051F0113028F0123092
:1047700049F01330F1F411C0CE0168EC05C0CE0150
:1047800068EA0DC0CE0168E00E94772180E890E0E1
:104790009987888780EA90E00AC0CE0168E60E9487
:1047A000772180EA90E09987888780E890E09B876E
:1047B0008A87DF91CF911F910895662311F460E2FB
:1047C00001C061E20E944E210895AF92BF92CF9244
:1047D000DF92EF92FF920F931F93CF93DF935C01D1
:1047E000FB01EB012196D49031C08E010F5F1F4F6A
:1047F000FE016491C5010E944E2178010894E11CDC
:10480000F11CF801C4900C2D0F77E701102F08C0A0
:10481000FE012196E491C5016E2F0E94772111506F
:104820001123B1F7E701C00FD11DC7FE0EC0FE0175
:104830008491682F70E06F3F710511F464EF71E0AF
:10484000219680E090E00E946213DA94DD2069F600
:10485000DF91CF911F910F91FF90EF90DF90CF905C
:10486000BF90AF9008950F931F93CF93DF93EC0108
:104870008B0160E870E040EA50E00E94791D1AA6C2
:1048800019A689A161E00E94211688A161E00E9419
:104890002116E8A12E2F30E0F901EE5CFE4FE491E5
:1048A000F0E0EE0FFF1FE250FF4F859194919D8F36
:1048B0008C8F28583E4FF90184918FA3E9A12E2FA8
:1048C00030E0F901EE5CFE4FE491F0E0EE0FFF1FE7
:1048D000E250FF4F859194919F8F8E8F28583E4FC5
:1048E000F901849188A78F89882361F00E94843818
:1048F00080E00E94733881E00E94653880E00E9469
:104900006E383DC08CA161E00E9421168BA161E050
:104910000E942116ECA18E2F90E0FC01EE5CFE4F70
:10492000E491F0E0EE0FFF1FE250FF4FA591B4912C
:10493000BB8FAA8F88589E4FFC0144914EA3EBA1D8
:104940002E2F30E0F901EE5CFE4FE491F0E0EE0F27
:10495000FF1FE250FF4F85919491998F888F2858BF
:104960003E4FF90184918DA38C91409548234C933F
:10497000E88DF98D90818DA1809589238083EC8DC0
:10498000FD8D90818FA18095892380838AA18823C2
:1049900009F161E00E9421168AA161E00E94D4160B
:1049A00064EF71E080E090E00E9462138AA160E011
:1049B0000E94D41664EF71E080E090E00E946213E0
:1049C0008AA161E00E94D41664EF71E080E090E07B
:1049D0000E9462130115110521F0CE01B8010E9459
:1049E000E523DF91CF911F910F9108951F93CF93EE
:1049F000DF93EC01162F6FEF76E00E943324112332
:104A000051F4CE016AE377E00E94E52382E089A7B2
:104A100081E08AA705C0CE0167E477E00E94E52324
:104A2000CE0164E577E00E94E523DF91CF911F91ED
:104A3000089582E090E0A0E0B0E08093120A9093A5
:104A4000130AA093140AB093150A1092290A10921F
:104A5000330A1092320A8BEE96E09093310A8093DB
:104A6000300A1092350A1092520A1092530A10928C
:104A7000560A1092580A08952F923F924F925F92D1
:104A80006F927F928F929F92AF92BF92CF92DF925E
:104A9000EF92FF920F931F93DF93CF93CDB7DEB7C3
:104AA000C754D0400FB6F894DEBF0FBECDBF582E0E
:104AB000492EFB013A01190180A191A1998B888BA4
:104AC0002BEE36E03F872E8782A18A8B83A18B8BCA
:104AD00084A195A1A6A1B7A18C8B9D8BAE8BBF8B1A
:104AE00080A591A5A2A5B3A5888F998FAA8FBB8F0A
:104AF00084A595A5A6A5B7A58C8F9D8FAE8FBF8FDA
:104B000080A988A381A992A9A3A9B4A989A39AA3DA
:104B1000ABA3BCA385A996A9A7A9B0AD8DA39EA35D
:104B2000AFA3B8A781AD92AD9AA789A71EA61DA66F
:104B30003CA72BA718AA7A018E01025F1F4F3BE208
:104B4000A32EB12CAC0EBD1E4E010894811C911CED
:104B500035C0D7018C918F3221F40894E11CF11CEF
:104B60002DC0422F4E194D3008F04CE0C42EDD24EC
:104B7000C401B701A6010E94683BF401EC0DFD1DC4
:104B80001082C5010E94442AC501B801A40121E098
:104B90000E948C2F882351F4E52DF42D138212826C
:104BA0008BEE96E091838083158266C0EC0CFD1C31
:104BB000C8010E94442AC50158018C01C7016FE257
:104BC00070E00E945D3B9C01009719F6E618F7081B
:104BD000F101F182E082E52DF42DD80112968D913C
:104BE0009C911397938382838BEE96E091838083CD
:104BF00014968C911497848315968C9115978583C0
:104C000016962D913D914D915C911997268337838E
:104C1000408751871A962D913D914D915C911D973A
:104C200022873387448755871E962D913D914D915C
:104C30005C91519726873787408B518B52968C9188
:104C40005297828B53962D913D914D915C91569741
:104C5000238B348B458B568B57962D913D914D91DF
:104C60005C915A97278B308F418F528F5B968D9135
:104C70009C915C97948F838F852D942DC95BDF4F1A
:104C80000FB6F894DEBF0FBECDBFCF91DF911F915D
:104C90000F91FF90EF90DF90CF90BF90AF909F90DB
:104CA0008F907F906F905F904F903F902F900895DE
:104CB0009F92AF92BF92CF92DF92EF92FF920F93AB
:104CC0001F93DF93CF93CDB7DEB7C657D0400FB653
:104CD000F894DEBF0FBECDBFC82E992E8A01D22E0A
:104CE00043E0A42EB12CAC0EBD1EC501A8019E014F
:104CF0002F5F3F4F0E943C25E980FA80E00EF11EB5
:104D0000F70180814BEE56E02885882309F03FC0EB
:104D10008D819E819BA38AA359A348A38F818CA3D5
:104D20002DA389859A85AB85BC858EA39FA3A8A753
:104D3000B9A78D859E85AF85B8898AA79BA7ACA7A3
:104D4000BDA789899A89AB89BC898EA79FA7A8AB83
:104D5000B9AB8D898AAB8E899F89A88DB98D8BABB4
:104D60009CABADABBEAB8A8D9B8DAC8DBD8D8FAB3F
:104D700098AFA9AFBAAF8E8D9F8D9CAF8BAF8C2DA6
:104D8000992DBE01605E7F4F41ED55E09FC0FE0151
:104D9000FF96118210825EAF4DAFFE01EE5BFF4FBA
:104DA00010822223A9F02250CE01CD96223048F461
:104DB00060E37AE0A7012D2D0E948C2F882381F4D7
:104DC00007C0B501A7012D2D0E948C2F882329F43F
:104DD0008C2D992D0E94B0277BC0C5010E94442ACA
:104DE000F6E0DF2259F0FE01E05BFF4F4081518188
:104DF00062817381CE01CD960E9434299E01265A8C
:104E00003F4FFE01FF9680819181F9019383828358
:104E10008BEE96E091838083FE01EF5BFF4F8081F4
:104E2000F9018483FE01EE5BFF4F8081F9018583E8
:104E3000FE01ED5BFF4F80819181A281B381F90179
:104E400086839783A087B187FE01E95BFF4F80814E
:104E50009181A281B381F90182879387A487B58765
:104E6000FE01E55BFF4F80819181A281B381F90151
:104E700086879787A08BB18BFE01E15BFF4F808116
:104E8000F901828BFE01E05BFF4F80819181A2815D
:104E9000B381F901838B948BA58BB68BFE01EC5A01
:104EA000FF4F80819181A281B381F901878B908F1F
:104EB000A18FB28FFE01E85AFF4F80819181F901E5
:104EC000948F838F8C2D992DB901A7010E94BA2848
:104ED0008C2D992DCA58DF4F0FB6F894DEBF0FBE48
:104EE000CDBFCF91DF911F910F91FF90EF90DF9099
:104EF000CF90BF90AF909F900895EF92FF920F9345
:104F00001F93CF93DF93EC01462F8C01055C1F4F5D
:104F1000C80161E00E94CD328823D1F0FC2EED2E35
:104F2000CE01B80141E00E943A34882339F4CE0121
:104F3000B80140E00E943A34882351F0CE014E96E9
:104F40006F2D7E2D0E947A2C882319F081E001C0FC
:104F500080E0DF91CF911F910F91FF90EF90089526
:104F6000FC011382128288EE93E0A0E0B0E084831B
:104F70009583A683B7838BED96E091838083128E11
:104F8000118E14860895FC018BED96E09183808349
:104F90000895DF93CF930F92CDB7DEB7FC016983FD
:104FA000A081B18112962D913C911397BE016F5F44
:104FB0007F4F41E050E0F90119950F90CF91DF91BB
:104FC0000895DC015996ED91FC915A97309719F4A8
:104FD00020E030E018C023893489458956898285CC
:104FE0009385A485B585281B390B4A0B5B0B2030B4
:104FF000B0E83B07B0E04B07B0E05B0720F02FEFD5
:105000003FE740E050E0C9010895DC015996ED9179
:10501000FC915A97309711F480E0089585818111B1
:1050200081E00895CF93DF93EC01898D9A8D0097ED
:1050300041F00E94442A898D9A8D0E948E3A1A8EE0
:10504000198EDF91CF910895FC01818D928D00978B
:1050500011F480E008950E9434290895FC01818DA7
:10506000928D009711F00E94FA290895FC01818D1C
:10507000928D009719F420E030E003C00E941B2BB2
:105080009C01C9010895DF93CF930F92CDB7DEB78E
:10509000FC01818D928D009749F0BE016F5F7F4FBB
:1050A00041E050E00E941B2B019719F02FEF3FEFDA
:1050B00003C08981282F30E0C9010F90CF91DF9183
:1050C0000895EF92FF920F931F93DF93CF930F9268
:1050D000CDB7DEB77C01DC0159968D919C915A9732
:1050E000009719F400E010E01FC0BE016F5F7F4F12
:1050F00041E050E00E941B2B019719F00FEF1FEFCA
:1051000013C08981082F10E0D7015996ED91FC91C9
:105110005A9742855385648575854150504060405B
:105120007040CF010E943429C8010F90CF91DF91C8
:105130001F910F91FF90EF900895CF93DF93EC01B3
:10514000E98DFA8D309761F013821282CF010E94AF
:10515000602D9C01E98DFA8D82819381892B31F03C
:1051600081E090E09B838A8320E030E0C901DF91F9
:10517000CF910895EF92FF920F931F93CF93DF93F8
:10518000EC01F62EE72E8A011B821A8288EE93E04C
:10519000A0E0B0E08C839D83AE83BF838BED96E06F
:1051A000998388838DE190E00E94F1399A8F898FED
:1051B000009791F0DC018F2D9E2D9C01F9018DE16E
:1051C00001900D928150E1F7CE010C96B8014CE0B0
:1051D00050E00E94683B188EDF91CF911F910F9194
:1051E000FF90EF900895CF93DF93EC01DB0180E017
:1051F00090E020E2FD01E80FF91F208301968B303B
:105200009105C1F757E040E021C02E3219F086EE3B
:1052100097E007C05A3019F15AE048E017C032173A
:10522000F1F0FC01019634913323C9F75417B8F01B
:105230002132A8F02F3798F4822F81568A3108F452
:105240002052FD01E40FF11D20834F5F299122239D
:10525000E1F690E08C91803219F091E001C090E08D
:10526000892FDF91CF9108956F927F928F929F92B5
:10527000AF92BF92CF92DF92EF92FF920F931F9364
:10528000CF93DF93EC017A018B012D81222309F466
:1052900080C08B899C89AD89BE8984179507A60734
:1052A000B70708F476C085C0E114F10401051105C3
:1052B00049F41E821F82188619861A861B861C8650
:1052C0001D8665C02A853B854C855D85EB8DFC8DF3
:1052D000858590E00996215030404040504039018A
:1052E0004A01082E04C096948794779467940A9490
:1052F000D2F72F5F3F4F4F4F5F4F0894E108F108FF
:10530000010911095701680104C0D694C794B794E4
:10531000A7948A95D2F70894E11CF11C011D111D78
:10532000A614B704C804D90428F021153105410595
:10533000510549F48F89988DA98DBA8D8E839F83ED
:10534000A887B98716C0A618B708C808D90811C019
:105350004E815F81688579858B8D9C8D94010E943B
:105360001B360894A108B108C108D108882331F47C
:1053700010C086E0882E912C8C0E9D1EA114B104C5
:10538000C104D10429F7EA86FB860C871D8781E0DA
:1053900001C080E0DF91CF911F910F91FF90EF90BE
:1053A000DF90CF90BF90AF909F908F907F906F9045
:1053B0000895223009F078CFE6CFCF93DF93EC0148
:1053C000462F6E857F85888999890E94FF338823BF
:1053D00019F420E030E00AC08A89282F30E095E0F7
:1053E000220F331F9A95E1F7235A354FC901DF91F8
:1053F000CF9108950F931F93CF93DF938C01FC01FE
:1054000085818823D9F1848187FF35C0C80161E097
:105410000E94DD29EC01009789F1F8018581823035
:1054200040F483899489A589B6898C8F9D8FAE8F2E
:10543000BF8FF8018789908D9B8F8A8F8789908D88
:10544000A18DB28DCD01AA27BB279D8B8C8BE091BE
:105450005B0AF0915C0A309751F0BE016A5E7F4FA3
:10546000CE0148961995888D998D9B8B8A8BF80172
:1054700084818F7784830E94A03301C080E0DF9114
:10548000CF911F910F910895CF93DF93EC010E946C
:10549000FA29882311F01D8281E0DF91CF910895D0
:1054A0006F927F928F929F92AF92BF92CF92DF9234
:1054B000EF92FF920F931F93DF93CF9300D00F9241
:1054C000CDB7DEB77C015A016B01DC0115968C91DA
:1054D0001597813009F08FC014968C9181FF8BC095
:1054E0009EC00097A105B10511F481E085C0F701C8
:1054F0006284738484849584C701B601A5010E94E7
:105500003429882309F477C0D7015B968D919C914B
:105510005C97A114B104C104D10489F457964D914C
:105520005D916D917C915A970E948E36882309F483
:1055300062C0F701178A108E118E128E3DC0D701FE
:1055400016964D915D916D917C9119979E012F5FFB
:105550003F4F0E941B36882309F44DC0D7015B964C
:10556000ED91FC915C9749815A816B817C8187899F
:10557000803129F088EF9FEFAFEFBFE004C088EFE4
:105580009FEFA0E0B0E0481759076A077B07A0F437
:10559000CF010E948E36882371F1F7014681578131
:1055A00060857185838D948D0FEF1FEF2FEF3FE0A6
:1055B0000E947F358823F9F0D7015396AD92BD92B2
:1055C000CD92DC92569714968C911497806814961D
:1055D0008C93C7010E94FA29882369F0B601A501BE
:1055E0006A147B048C049D0410F4B401A301C70168
:1055F0000E94342901C080E00F900F900F900F900F
:10560000CF91DF911F910F91FF90EF90DF90CF909E
:10561000BF90AF909F908F907F906F900895F7010B
:1056200083899489A589B68984179507A607B70742
:1056300008F057CFE0CF2F923F924F925F926F9238
:105640007F928F929F92AF92BF92CF92DF92EF9212
:10565000FF920F931F93CF93DF93EC012A018D816B
:10566000882309F4C6C08C8180FFC3C0D8C025013F
:105670004E185F084B0176E0272E312C2C0E3D1E74
:105680003201B1C02A853B854C855D856FEFA62E22
:1056900061E0B62EA222B3228D8179018A0199E0C0
:1056A00016950795F794E7949A95D1F7EB8DFC8DB5
:1056B000823049F4428D538D648D758D4E0D5F1D82
:1056C000601F711F3FC0D480DA94DE20A114B104A2
:1056D000D9F4DD20C9F4211531054105510549F4FE
:1056E0008F89988DA98DBA8D8E839F83A887B9875E
:1056F0000BC04E815F8168857985CF0191010E9441
:105700001B36882309F475C0EB8DFC8D4E815F81BB
:10571000688579854250504060407040058404C0DF
:10572000440F551F661F771F0A94D2F78685978509
:10573000A089B189480F591F6A1F7B1F4D0D511D4C
:10574000611D711D80E092E08A199B096301861535
:10575000970508F46C018C8186FD06C080E0C816B0
:1057600082E0D80609F073C08091A7069091A80640
:10577000A091A906B091AA06481759076A077B07A6
:1057800009F465C080915D0C90915E0C95018601D5
:1057900074010E942032882361F18C0C9D1C12C080
:1057A0009501235A354FA9014C0D5D1DD401F90116
:1057B00002C081918D93E417F507D9F7E21BF30B33
:1057C0008E0E9F1E960140E050E08A859B85AC8539
:1057D000BD85820F931FA41FB51F8A879B87AC8747
:1057E000BD876C187D086114710409F04BCFA201CC
:1057F00002C04FEF5FEFCA01DF91CF911F910F9170
:10580000FF90EF90DF90CF90BF90AF909F908F90E0
:105810007F906F905F904F903F902F900895AB884E
:10582000BC88CD88DE88EA84FB840C851D859A01BE
:1058300040E050E0D601C5018E199F09A00BB10BC5
:1058400082179307A407B50708F411CF13CFCB0134
:10585000BA0140E00E94FF33882309F0A1CFC9CFED
:10586000CF92DF92EF92FF920F931F93DF93CF932C
:105870000F92CDB7DEB76C01FC018581823070F0EC
:10588000E284F38404851585C601BE016F5F7F4FF6
:1058900041E050E00E941B2B019769F020E030E0CE
:1058A000C9010F90CF91DF911F910F91FF90EF9061
:1058B000DF90CF900895F60182859385A485B58504
:1058C0004F96A11DB11D82879387A487B587F5E008
:1058D00016950795F794E794FA95D1F78E2D8F706A
:1058E000282F30E0E5E0220F331FEA95E1F7235A35
:1058F000354FD6CF0F931F93CF93DF93EC018B01DE
:105900008D81882309F041C0FB0187898031B1F482
:1059100082E08D831F8A188E198E1A8E808D918D4C
:10592000A0E0B0E045E0880F991FAA1FBB1F4A9571
:10593000D1F78B8B9C8BAD8BBE8B15C0803229F53C
:1059400083E08D83FB01428D538D648D758D4F8B6C
:10595000588F698F7A8F9E012D5E3F4FC8010E943C
:10596000E736882391F01C8F0B8F81E08C831E8299
:105970001F82188619861A861B861C861D861E861F
:105980001F86188A198A1A8A01C080E0DF91CF9198
:105990001F910F9108951F93CF93DF93EC01142F64
:1059A000E62FF0E075E0EE0FFF1F7A95E1F7E35A7E
:1059B000F54F8385817121F0842F827409F054C0E2
:1059C0006A8B8091A7069091A806A091A906B09134
:1059D000AA068E879F87A88BB98B84899589A0E0BA
:1059E000B0E0BC0155274427828D938DA0E0B0E044
:1059F000482B592B6A2B7B2B4F8B588F698F7A8FB3
:105A0000838590E088719070009751F4848D958D16
:105A1000A68DB78D8B8B9C8BAD8BBE8B81E00CC024
:105A2000409711F59E012D5E3F4F8B8D9C8D0E94FE
:105A3000E7368823C9F084E08D83812F8F708C83B3
:105A40001E821F82188619861A861B861C861D8652
:105A500016FD02C081E009C0CE0140E050E060E0E8
:105A600070E00E94502A01C080E0DF91CF911F9129
:105A70000895CF93DF93EC019C012A5F3F4F8B8DFC
:105A80009C8D41E050E060E070E00E945637882332
:105A9000A1F08F89988DA98DBA8D0097A105B105C8
:105AA00059F48E819F81A885B9858F8B988FA98F96
:105AB000BA8F8C8180688C8381E0DF91CF910895CB
:105AC0002F923F924F925F927F928F929F92AF92CE
:105AD000BF92CF92DF92EF92FF920F931F93DF93CB
